{
  "contractName": "Presale",
  "abi": [
    {
      "inputs": [
        {
          "internalType": "contract IBEP20",
          "name": "_crssToken",
          "type": "address"
        },
        {
          "internalType": "contract IBEP20",
          "name": "_busd",
          "type": "address"
        },
        {
          "internalType": "address",
          "name": "_masterWallet",
          "type": "address"
        },
        {
          "internalType": "uint256",
          "name": "_startTimestamp",
          "type": "uint256"
        }
      ],
      "stateMutability": "nonpayable",
      "type": "constructor"
    },
    {
      "anonymous": false,
      "inputs": [
        {
          "indexed": true,
          "internalType": "address",
          "name": "depositUser",
          "type": "address"
        },
        {
          "indexed": false,
          "internalType": "uint256",
          "name": "amount",
          "type": "uint256"
        }
      ],
      "name": "Deposit",
      "type": "event"
    },
    {
      "anonymous": false,
      "inputs": [
        {
          "indexed": true,
          "internalType": "address",
          "name": "previousOwner",
          "type": "address"
        },
        {
          "indexed": true,
          "internalType": "address",
          "name": "newOwner",
          "type": "address"
        }
      ],
      "name": "OwnershipTransferred",
      "type": "event"
    },
    {
      "anonymous": false,
      "inputs": [
        {
          "indexed": true,
          "internalType": "address",
          "name": "addr",
          "type": "address"
        },
        {
          "indexed": false,
          "internalType": "bool",
          "name": "status",
          "type": "bool"
        }
      ],
      "name": "SetWhiteList",
      "type": "event"
    },
    {
      "anonymous": false,
      "inputs": [
        {
          "indexed": false,
          "internalType": "uint256",
          "name": "hardCapAmount",
          "type": "uint256"
        }
      ],
      "name": "UpdateHardCapAmount",
      "type": "event"
    },
    {
      "anonymous": false,
      "inputs": [
        {
          "indexed": false,
          "internalType": "uint256",
          "name": "maxBusdPerWallet",
          "type": "uint256"
        }
      ],
      "name": "UpdateMaxBusdPerWallet",
      "type": "event"
    },
    {
      "anonymous": false,
      "inputs": [
        {
          "indexed": false,
          "internalType": "uint256",
          "name": "minPurchase",
          "type": "uint256"
        }
      ],
      "name": "UpdateMinPurchase",
      "type": "event"
    },
    {
      "anonymous": false,
      "inputs": [
        {
          "indexed": false,
          "internalType": "uint256",
          "name": "secondRoundAmount",
          "type": "uint256"
        }
      ],
      "name": "UpdateSecondRoundAmount",
      "type": "event"
    },
    {
      "anonymous": false,
      "inputs": [
        {
          "indexed": false,
          "internalType": "uint256",
          "name": "softCapAmount",
          "type": "uint256"
        }
      ],
      "name": "UpdateSoftCapAmount",
      "type": "event"
    },
    {
      "anonymous": false,
      "inputs": [
        {
          "indexed": true,
          "internalType": "address",
          "name": "user",
          "type": "address"
        },
        {
          "indexed": false,
          "internalType": "uint256",
          "name": "amount",
          "type": "uint256"
        }
      ],
      "name": "Withdraw",
      "type": "event"
    },
    {
      "inputs": [],
      "name": "allInvestors",
      "outputs": [
        {
          "internalType": "address[]",
          "name": "",
          "type": "address[]"
        }
      ],
      "stateMutability": "view",
      "type": "function"
    },
    {
      "inputs": [],
      "name": "busd",
      "outputs": [
        {
          "internalType": "contract IBEP20",
          "name": "",
          "type": "address"
        }
      ],
      "stateMutability": "view",
      "type": "function"
    },
    {
      "inputs": [],
      "name": "crssToken",
      "outputs": [
        {
          "internalType": "contract IBEP20",
          "name": "",
          "type": "address"
        }
      ],
      "stateMutability": "view",
      "type": "function"
    },
    {
      "inputs": [
        {
          "internalType": "uint256",
          "name": "_amount",
          "type": "uint256"
        }
      ],
      "name": "deposit",
      "outputs": [],
      "stateMutability": "nonpayable",
      "type": "function"
    },
    {
      "inputs": [],
      "name": "firstTokenPrice",
      "outputs": [
        {
          "internalType": "uint256",
          "name": "",
          "type": "uint256"
        }
      ],
      "stateMutability": "view",
      "type": "function"
    },
    {
      "inputs": [],
      "name": "hardCapAmount",
      "outputs": [
        {
          "internalType": "uint256",
          "name": "",
          "type": "uint256"
        }
      ],
      "stateMutability": "view",
      "type": "function"
    },
    {
      "inputs": [],
      "name": "investorCount",
      "outputs": [
        {
          "internalType": "uint256",
          "name": "",
          "type": "uint256"
        }
      ],
      "stateMutability": "view",
      "type": "function"
    },
    {
      "inputs": [
        {
          "internalType": "uint256",
          "name": "",
          "type": "uint256"
        }
      ],
      "name": "investors",
      "outputs": [
        {
          "internalType": "address",
          "name": "",
          "type": "address"
        }
      ],
      "stateMutability": "view",
      "type": "function"
    },
    {
      "inputs": [],
      "name": "masterWallet",
      "outputs": [
        {
          "internalType": "address",
          "name": "",
          "type": "address"
        }
      ],
      "stateMutability": "view",
      "type": "function"
    },
    {
      "inputs": [],
      "name": "maxBusdPerWallet",
      "outputs": [
        {
          "internalType": "uint256",
          "name": "",
          "type": "uint256"
        }
      ],
      "stateMutability": "view",
      "type": "function"
    },
    {
      "inputs": [],
      "name": "maxSupply",
      "outputs": [
        {
          "internalType": "uint256",
          "name": "",
          "type": "uint256"
        }
      ],
      "stateMutability": "view",
      "type": "function"
    },
    {
      "inputs": [],
      "name": "minPurchase",
      "outputs": [
        {
          "internalType": "uint256",
          "name": "",
          "type": "uint256"
        }
      ],
      "stateMutability": "view",
      "type": "function"
    },
    {
      "inputs": [],
      "name": "oneMonth",
      "outputs": [
        {
          "internalType": "uint256",
          "name": "",
          "type": "uint256"
        }
      ],
      "stateMutability": "view",
      "type": "function"
    },
    {
      "inputs": [],
      "name": "owner",
      "outputs": [
        {
          "internalType": "address",
          "name": "",
          "type": "address"
        }
      ],
      "stateMutability": "view",
      "type": "function"
    },
    {
      "inputs": [],
      "name": "renounceOwnership",
      "outputs": [],
      "stateMutability": "nonpayable",
      "type": "function"
    },
    {
      "inputs": [],
      "name": "secondRoundAmount",
      "outputs": [
        {
          "internalType": "uint256",
          "name": "",
          "type": "uint256"
        }
      ],
      "stateMutability": "view",
      "type": "function"
    },
    {
      "inputs": [],
      "name": "secondTokenPrice",
      "outputs": [
        {
          "internalType": "uint256",
          "name": "",
          "type": "uint256"
        }
      ],
      "stateMutability": "view",
      "type": "function"
    },
    {
      "inputs": [
        {
          "internalType": "address",
          "name": "_addr",
          "type": "address"
        },
        {
          "internalType": "bool",
          "name": "_status",
          "type": "bool"
        }
      ],
      "name": "setWhiteList",
      "outputs": [],
      "stateMutability": "nonpayable",
      "type": "function"
    },
    {
      "inputs": [],
      "name": "softCapAmount",
      "outputs": [
        {
          "internalType": "uint256",
          "name": "",
          "type": "uint256"
        }
      ],
      "stateMutability": "view",
      "type": "function"
    },
    {
      "inputs": [],
      "name": "startTimestamp",
      "outputs": [
        {
          "internalType": "uint256",
          "name": "",
          "type": "uint256"
        }
      ],
      "stateMutability": "view",
      "type": "function"
    },
    {
      "inputs": [],
      "name": "thirdTokenPrice",
      "outputs": [
        {
          "internalType": "uint256",
          "name": "",
          "type": "uint256"
        }
      ],
      "stateMutability": "view",
      "type": "function"
    },
    {
      "inputs": [],
      "name": "tokenPrice",
      "outputs": [
        {
          "internalType": "uint256",
          "name": "",
          "type": "uint256"
        }
      ],
      "stateMutability": "view",
      "type": "function"
    },
    {
      "inputs": [],
      "name": "totalDepositedBusdBalance",
      "outputs": [
        {
          "internalType": "uint256",
          "name": "",
          "type": "uint256"
        }
      ],
      "stateMutability": "view",
      "type": "function"
    },
    {
      "inputs": [],
      "name": "totalRewardAmount",
      "outputs": [
        {
          "internalType": "uint256",
          "name": "",
          "type": "uint256"
        }
      ],
      "stateMutability": "view",
      "type": "function"
    },
    {
      "inputs": [],
      "name": "totalWithdrawedAmount",
      "outputs": [
        {
          "internalType": "uint256",
          "name": "",
          "type": "uint256"
        }
      ],
      "stateMutability": "view",
      "type": "function"
    },
    {
      "inputs": [
        {
          "internalType": "address",
          "name": "newOwner",
          "type": "address"
        }
      ],
      "name": "transferOwnership",
      "outputs": [],
      "stateMutability": "nonpayable",
      "type": "function"
    },
    {
      "inputs": [],
      "name": "unlockPerMonth",
      "outputs": [
        {
          "internalType": "uint256",
          "name": "",
          "type": "uint256"
        }
      ],
      "stateMutability": "view",
      "type": "function"
    },
    {
      "inputs": [
        {
          "internalType": "address",
          "name": "_user",
          "type": "address"
        }
      ],
      "name": "unlockedToken",
      "outputs": [
        {
          "internalType": "uint256",
          "name": "",
          "type": "uint256"
        }
      ],
      "stateMutability": "view",
      "type": "function"
    },
    {
      "inputs": [
        {
          "internalType": "uint256",
          "name": "_hardCapAmount",
          "type": "uint256"
        }
      ],
      "name": "updateHardCapAmount",
      "outputs": [],
      "stateMutability": "nonpayable",
      "type": "function"
    },
    {
      "inputs": [
        {
          "internalType": "uint256",
          "name": "_maxBusdPerWallet",
          "type": "uint256"
        }
      ],
      "name": "updateMaxBusdPerWallet",
      "outputs": [],
      "stateMutability": "nonpayable",
      "type": "function"
    },
    {
      "inputs": [
        {
          "internalType": "uint256",
          "name": "_minPurchase",
          "type": "uint256"
        }
      ],
      "name": "updateMinPurchase",
      "outputs": [],
      "stateMutability": "nonpayable",
      "type": "function"
    },
    {
      "inputs": [
        {
          "internalType": "uint256",
          "name": "_secondRoundAmount",
          "type": "uint256"
        }
      ],
      "name": "updateSecondRoundAmount",
      "outputs": [],
      "stateMutability": "nonpayable",
      "type": "function"
    },
    {
      "inputs": [
        {
          "internalType": "uint256",
          "name": "_softCapAmount",
          "type": "uint256"
        }
      ],
      "name": "updateSoftCapAmount",
      "outputs": [],
      "stateMutability": "nonpayable",
      "type": "function"
    },
    {
      "inputs": [
        {
          "internalType": "address",
          "name": "",
          "type": "address"
        }
      ],
      "name": "userDetail",
      "outputs": [
        {
          "internalType": "uint256",
          "name": "depositTime",
          "type": "uint256"
        },
        {
          "internalType": "uint256",
          "name": "totalRewardAmount",
          "type": "uint256"
        },
        {
          "internalType": "uint256",
          "name": "withdrawAmount",
          "type": "uint256"
        },
        {
          "internalType": "uint256",
          "name": "depositAmount",
          "type": "uint256"
        }
      ],
      "stateMutability": "view",
      "type": "function"
    },
    {
      "inputs": [
        {
          "internalType": "address",
          "name": "",
          "type": "address"
        }
      ],
      "name": "whitelist",
      "outputs": [
        {
          "internalType": "bool",
          "name": "",
          "type": "bool"
        }
      ],
      "stateMutability": "view",
      "type": "function"
    },
    {
      "inputs": [
        {
          "internalType": "uint256",
          "name": "_amount",
          "type": "uint256"
        }
      ],
      "name": "withdrawToken",
      "outputs": [],
      "stateMutability": "nonpayable",
      "type": "function"
    }
  ],
  "bytecode": "0x6080604052690a968163f0a57b400000600c55692a5a058fc295ed000000600d556706f05b59d3b20000600e55683635c9adc5dea00000600f553480156200004657600080fd5b506040516200198838038062001988833981810160405260808110156200006c57600080fd5b508051602082015160408301516060909301519192909160006200008f62000242565b600080546001600160a01b0319166001600160a01b0383169081178255604051929350917f8be0079c531659141344cd1fd0a4f28419497f9722a3daafe3b4186f6b6457e0908290a350600180556001600160a01b038416620001245760405162461bcd60e51b8152600401808060200182810382526031815260200180620018c56031913960400191505060405180910390fd5b6001600160a01b0383166200016b5760405162461bcd60e51b8152600401808060200182810382526036815260200180620018f66036913960400191505060405180910390fd5b6001600160a01b038216620001b25760405162461bcd60e51b81526004018080602001828103825260398152602001806200194f6039913960400191505060405180910390fd5b620001bc62000246565b811015620001fc5760405162461bcd60e51b81526004018080602001828103825260238152602001806200192c6023913960400191505060405180910390fd5b600280546001600160a01b03199081166001600160a01b0396871617909155600380548216948616949094179093556007805490931691909316179055600b556200024a565b3390565b4290565b61166b806200025a6000396000f3fe608060405234801561001057600080fd5b506004361061018e5760003560e01c8063b6b55f25116100de578063d7e64c0011610097578063f2fde38b11610071578063f2fde38b146103a3578063fb27961c146103c9578063fc0d0117146103d1578063fc7e286d146103d95761018e565b8063d7e64c001461033b578063e674ad0214610343578063e6fd48bc1461039b5761018e565b8063b6b55f25146102f6578063b88d54e314610313578063c8b18b5b1461031b578063c9ecd56714610323578063cf054fb21461032b578063d53032cf146103335761018e565b8063676c0d771161014b5780637ff9b596116101255780637ff9b596146102d65780638da5cb5b146102de5780638e73064f146102e65780639f87aedd146102ee5761018e565b8063676c0d771461028b578063715018a6146102a857806374cdab6e146102b05761018e565b80630107980c1461019357806313602eb2146101b25780633feb5f2b146101cf57806348d6df751461020857806350baa622146102225780635b10493f1461023f575b600080fd5b6101b0600480360360208110156101a957600080fd5b50356103ff565b005b6101b0600480360360208110156101c857600080fd5b50356104a5565b6101ec600480360360208110156101e557600080fd5b503561054b565b604080516001600160a01b039092168252519081900360200190f35b610210610572565b60408051918252519081900360200190f35b6101b06004803603602081101561023857600080fd5b5035610578565b6102656004803603602081101561025557600080fd5b50356001600160a01b03166106b2565b604080519485526020850193909352838301919091526060830152519081900360800190f35b6101b0600480360360208110156102a157600080fd5b50356106d9565b6101b061077f565b610210600480360360208110156102c657600080fd5b50356001600160a01b031661082b565b6102106108df565b6101ec6108e5565b6102106108f4565b6102106108fa565b6101b06004803603602081101561030c57600080fd5b5035610900565b610210610c3c565b610210610c42565b610210610c49565b610210610c4e565b6101b0610c54565b610210610dfc565b61034b610e02565b60408051602080825283518183015283519192839290830191858101910280838360005b8381101561038757818101518382015260200161036f565b505050509050019250505060405180910390f35b610210610e64565b6101b0600480360360208110156103b957600080fd5b50356001600160a01b0316610e6a565b610210610f6c565b6101ec610f72565b610210600480360360208110156103ef57600080fd5b50356001600160a01b0316610f81565b610407610f93565b6001600160a01b03166104186108e5565b6001600160a01b031614610461576040805162461bcd60e51b815260206004820181905260248201526000805160206115bc833981519152604482015290519081900360640190fd5b600081116104a05760405162461bcd60e51b81526004018080602001828103825260348152602001806115166034913960400191505060405180910390fd5b600c55565b6104ad610f93565b6001600160a01b03166104be6108e5565b6001600160a01b031614610507576040805162461bcd60e51b815260206004820181905260248201526000805160206115bc833981519152604482015290519081900360640190fd5b600081116105465760405162461bcd60e51b81526004018080602001828103825260348152602001806116026034913960400191505060405180910390fd5b600d55565b6006818154811061055857fe5b6000918252602090912001546001600160a01b0316905081565b60085481565b60006105833361082b565b9050818110156105c45760405162461bcd60e51b81526004018080602001828103825260348152602001806114926034913960400191505060405180910390fd5b33600090815260046020526040902060028101546105e29084610f97565b6002820155600a546105f49084610f97565b600a556002546040805163a9059cbb60e01b81523360048201526024810186905290516001600160a01b039092169163a9059cbb916044808201926020929091908290030181600087803b15801561064b57600080fd5b505af115801561065f573d6000803e3d6000fd5b505050506040513d602081101561067557600080fd5b505060408051848152905133917f884edad9ce6fa2440d8a54cc123490eb96d2768479d49ff9c7366125a9424364919081900360200190a2505050565b60046020526000908152604090208054600182015460028301546003909301549192909184565b6106e1610f93565b6001600160a01b03166106f26108e5565b6001600160a01b03161461073b576040805162461bcd60e51b815260206004820181905260248201526000805160206115bc833981519152604482015290519081900360640190fd5b6000811161077a5760405162461bcd60e51b81526004018080602001828103825260348152602001806115166034913960400191505060405180910390fd5b600e55565b610787610f93565b6001600160a01b03166107986108e5565b6001600160a01b0316146107e1576040805162461bcd60e51b815260206004820181905260248201526000805160206115bc833981519152604482015290519081900360640190fd5b600080546040516001600160a01b03909116907f8be0079c531659141344cd1fd0a4f28419497f9722a3daafe3b4186f6b6457e0908390a3600080546001600160a01b0319169055565b6001600160a01b0381166000908152600460205260408120805461084d610ffa565b1161085c5760009150506108da565b6000610874826000015461086e610ffa565b90610ffe565b905060006108858262278d0061105b565b905060006005821061089c575060018301546108c3565b6108c060646108ba6108af6014866110c2565b6001880154906110c2565b9061105b565b90505b60028401546108d3908290610ffe565b9450505050505b919050565b600e5481565b6000546001600160a01b031690565b60095481565b600f5481565b60026001541415610958576040805162461bcd60e51b815260206004820152601f60248201527f5265656e7472616e637947756172643a207265656e7472616e742063616c6c00604482015290519081900360640190fd5b6002600155600b54610968610ffa565b10156109a55760405162461bcd60e51b81526004018080602001828103825260268152602001806115dc6026913960400191505060405180910390fd5b600d5481600854011115610a00576040805162461bcd60e51b815260206004820152601e60248201527f6465706f7369742069732061626f76652068617264636170206c696d69740000604482015290519081900360640190fd5b336000908152600460205260409020600f54600382015483011115610a565760405162461bcd60e51b81526004018080602001828103825260418152602001806114516041913960600191505060405180910390fd5b600e54600090610a72906108ba85670de0b6b3a76400006110c2565b905080610b1560095461086e600a54600260009054906101000a90046001600160a01b03166001600160a01b03166370a08231306040518263ffffffff1660e01b815260040180826001600160a01b0316815260200191505060206040518083038186803b158015610ae357600080fd5b505afa158015610af7573d6000803e3d6000fd5b505050506040513d6020811015610b0d57600080fd5b505190610f97565b1015610b525760405162461bcd60e51b815260040180806020018281038252602b815260200180611591602b913960400191505060405180910390fd5b6003820154610b9e57600680546001810182556000919091527ff652222313e28459528d920b65115c16c04f3efc82aaedc97be59f3f377c0d3f0180546001600160a01b031916331790555b610ba6610ffa565b8255600382018054840190556001820154610bc19082610f97565b6001830155600954610bd39082610f97565b6009556008805484019055600754600354610bfd916001600160a01b03918216913391168661111b565b60408051848152905133917fe1fffcc4923d04b559f4d29a8bfc6cda04eb5b0d3c460751c2402c5c5cc9109c919081900360200190a250506001805550565b600a5481565b62278d0081565b601481565b600d5481565b610c5c610f93565b6001600160a01b0316610c6d6108e5565b6001600160a01b031614610cb6576040805162461bcd60e51b815260206004820181905260248201526000805160206115bc833981519152604482015290519081900360640190fd5b600254604080516370a0823160e01b815230600482015290516000926001600160a01b0316916370a08231916024808301926020929190829003018186803b158015610d0157600080fd5b505afa158015610d15573d6000803e3d6000fd5b505050506040513d6020811015610d2b57600080fd5b50516002546007546040805163a9059cbb60e01b81526001600160a01b03928316600482015260248101859052905193945091169163a9059cbb916044808201926020929091908290030181600087803b158015610d8857600080fd5b505af1158015610d9c573d6000803e3d6000fd5b505050506040513d6020811015610db257600080fd5b50506007546040805183815290516001600160a01b039092169130917faaf96e383616bf6ba009b48e9a154572352efafe0be96ff8f896b0e0987a376e919081900360200190a350565b60065490565b60606006805480602002602001604051908101604052809291908181526020018280548015610e5a57602002820191906000526020600020905b81546001600160a01b03168152600190910190602001808311610e3c575b5050505050905090565b600b5481565b610e72610f93565b6001600160a01b0316610e836108e5565b6001600160a01b031614610ecc576040805162461bcd60e51b815260206004820181905260248201526000805160206115bc833981519152604482015290519081900360640190fd5b6001600160a01b038116610f115760405162461bcd60e51b81526004018080602001828103825260268152602001806114f06026913960400191505060405180910390fd5b600080546040516001600160a01b03808516939216917f8be0079c531659141344cd1fd0a4f28419497f9722a3daafe3b4186f6b6457e091a3600080546001600160a01b0319166001600160a01b0392909216919091179055565b600c5481565b6007546001600160a01b031681565b60056020526000908152604090205481565b3390565b600082820183811015610ff1576040805162461bcd60e51b815260206004820152601b60248201527f536166654d6174683a206164646974696f6e206f766572666c6f770000000000604482015290519081900360640190fd5b90505b92915050565b4290565b600082821115611055576040805162461bcd60e51b815260206004820152601e60248201527f536166654d6174683a207375627472616374696f6e206f766572666c6f770000604482015290519081900360640190fd5b50900390565b60008082116110b1576040805162461bcd60e51b815260206004820152601a60248201527f536166654d6174683a206469766973696f6e206279207a65726f000000000000604482015290519081900360640190fd5b8183816110ba57fe5b049392505050565b6000826110d157506000610ff4565b828202828482816110de57fe5b0414610ff15760405162461bcd60e51b81526004018080602001828103825260218152602001806115706021913960400191505060405180910390fd5b604080516001600160a01b0380861660248301528416604482015260648082018490528251808303909101815260849091019091526020810180516001600160e01b03166323b872dd60e01b17905261117590859061117b565b50505050565b60606111d0826040518060400160405280602081526020017f5361666542455032303a206c6f772d6c6576656c2063616c6c206661696c6564815250856001600160a01b03166112319092919063ffffffff16565b80519091501561122c578080602001905160208110156111ef57600080fd5b505161122c5760405162461bcd60e51b815260040180806020018281038252602a8152602001806114c6602a913960400191505060405180910390fd5b505050565b6060611240848460008561124a565b90505b9392505050565b60608247101561128b5760405162461bcd60e51b815260040180806020018281038252602681526020018061154a6026913960400191505060405180910390fd5b611294856113a6565b6112e5576040805162461bcd60e51b815260206004820152601d60248201527f416464726573733a2063616c6c20746f206e6f6e2d636f6e7472616374000000604482015290519081900360640190fd5b60006060866001600160a01b031685876040518082805190602001908083835b602083106113245780518252601f199092019160209182019101611305565b6001836020036101000a03801982511681845116808217855250505050505090500191505060006040518083038185875af1925050503d8060008114611386576040519150601f19603f3d011682016040523d82523d6000602084013e61138b565b606091505b509150915061139b8282866113ac565b979650505050505050565b3b151590565b606083156113bb575081611243565b8251156113cb5782518084602001fd5b8160405162461bcd60e51b81526004018080602001828103825283818151815260200191508051906020019080838360005b838110156114155781810151838201526020016113fd565b50505050905090810190601f1680156114425780820380516001836020036101000a031916815260200191505b509250505060405180910390fdfe50726573616c652e6465706f7369743a206465706f73697420616d6f756e7420697320626967676572207468616e206d6178206465706f73697420616d6f756e7450726573616c652e7769746864726177546f6b656e3a204e6f7420656e6f75676820746f6b656e20746f2077697468647261772e5361666542455032303a204245503230206f7065726174696f6e20646964206e6f7420737563636565644f776e61626c653a206e6577206f776e657220697320746865207a65726f206164647265737350726573616c652e757064617465536f6674436170416d6f756e743a20736f66742063617020616d6f756e7420696e76616c6964416464726573733a20696e73756666696369656e742062616c616e636520666f722063616c6c536166654d6174683a206d756c7469706c69636174696f6e206f766572666c6f7750726573616c652e6465706f7369743a206e6f7420656e6f75676820746f6b656e20746f207265776172644f776e61626c653a2063616c6c6572206973206e6f7420746865206f776e657250726573616c652e6465706f7369743a2050726573616c65206973206e6f742061637469766550726573616c652e75706461746548617264436170416d6f756e743a20736f66742063617020616d6f756e7420696e76616c6964a264697066735822122050cd27e56c77a7844d0e41146dbd7682cacc62f7c4e3bb7a58fa84611c68718664736f6c634300060c003350726573616c653a20546f6b656e20616464726573732073686f756c64206e6f74206265207a65726f206164647265737350726573616c653a206275736420746f6b656e20616464726573732073686f756c64206e6f74206265207a65726f206164647265737350726573616c653a2050726573616c652073746172742074696d6520696e76616c696450726573616c653a206d61737465722077616c6c657420616464726573732073686f756c64206e6f74206265207a65726f2061646472657373",
  "immutableReferences": {},
  "source": "pragma solidity ^0.6.0;\r\n\r\nimport \"@openzeppelin/contracts/access/Ownable.sol\";\r\nimport \"@openzeppelin/contracts/math/SafeMath.sol\";\r\nimport \"@openzeppelin/contracts/utils/ReentrancyGuard.sol\";\r\n\r\nimport \"./libs/SafeBEP20.sol\";\r\nimport \"./libs/IBEP20.sol\";\r\n\r\ncontract Presale is Ownable, ReentrancyGuard {\r\n    using SafeMath for uint256;\r\n    using SafeBEP20 for IBEP20;\r\n    event Deposit(\r\n        address indexed depositUser, \r\n        uint256 amount\r\n    );\r\n    \r\n    event Withdraw(\r\n        address indexed user, \r\n        uint256 amount\r\n    );\r\n\r\n    event ClaimCrss(\r\n        address indexed from, \r\n        address indexed to, \r\n        uint256 amount\r\n    );\r\n\r\n    struct UserDetail {\r\n        uint256 depositTime;\r\n        uint256 totalRewardAmount;\r\n        uint256 withdrawAmount;   \r\n        uint256 depositAmount;\r\n    }\r\n    \r\n    IBEP20 crssToken;\r\n    IBEP20 busd;\r\n    \r\n    mapping(address => UserDetail) public userDetail;\r\n    mapping(address => uint256) public deposits;\r\n\r\n    address[] public investors;\r\n\r\n    address public masterWallet;\r\n    \r\n    uint256 public totalDepositedBusdBalance;\r\n    uint256 public totalRewardAmount;\r\n    uint256 public totalWithdrawedAmount;\r\n\r\n    uint256 public constant oneMonth = 30 days;\r\n    uint256 public constant unlockPerMonth = 20;\r\n    uint256 public startTimestamp;\r\n    uint256 public softCapAmount = 50000000000000000000000; // 50k busd\r\n    uint256 public hardCapAmount = 200000000000000000000000; // 200k busd\r\n    uint256 public tokenPrice = 500000000000000000; //0.5 busd\r\n    // uint256 public hardCapPrice = 1000000000000000000; //1 busd\r\n    uint256 public maxBusdPerWallet = 1000000000000000000000; //1k busd\r\n\r\n    constructor(\r\n        IBEP20 _crssToken,\r\n        IBEP20 _busd,\r\n        address _masterWallet,\r\n        uint256 _startTimestamp\r\n    ) public {\r\n        require(address(_crssToken) != address(0), \"Presale: Token address should not be zero address\");\r\n        require(address(_busd) != address(0), \"Presale: busd token address should not be zero address\");\r\n        require(_masterWallet != address(0), \"Presale: master wallet address should not be zero address\");\r\n        require(_startTimestamp >= _getNow(), \"Presale: Presale start time invalid\");\r\n\r\n        crssToken = _crssToken;\r\n        busd = _busd;\r\n        masterWallet = _masterWallet;\r\n        startTimestamp = _startTimestamp;\r\n\r\n    }\r\n\r\n    function investorCount() public view returns (uint256) {\r\n        return investors.length;\r\n    }\r\n\r\n    function allInvestors() public view returns (address[] memory) {\r\n        return investors;\r\n    }\r\n    \r\n    function updateSoftCapAmount(uint256 _softCapAmount) public onlyOwner {\r\n        require(_softCapAmount > 0, \"Presale.updateSoftCapAmount: soft cap amount invalid\");\r\n        softCapAmount = _softCapAmount;\r\n    }\r\n\r\n    function updateHardCapAmount(uint256 _hardCapAmount) public onlyOwner {\r\n        require(_hardCapAmount > 0, \"Presale.updateHardCapAmount: soft cap amount invalid\");\r\n        hardCapAmount = _hardCapAmount;\r\n    }\r\n\r\n    function updateTokenPrice(uint256 _tokenPrice) public onlyOwner {\r\n        require(_tokenPrice > 0, \"Presale.updateSoftCapAmount: soft cap amount invalid\");\r\n        tokenPrice = _tokenPrice;\r\n    }\r\n\r\n    function deposit(uint256 _amount) public nonReentrant {\r\n        require(_getNow() >= startTimestamp, \"Presale.deposit: Presale is not active\");\r\n        require(totalDepositedBusdBalance + _amount <= hardCapAmount, \"deposit is above hardcap limit\");\r\n\r\n        UserDetail storage user = userDetail[msg.sender];\r\n\r\n        require(user.depositAmount + _amount <= maxBusdPerWallet, \"Presale.deposit: deposit amount is bigger than max deposit amount\");\r\n\r\n        uint256 rewardTokenAmount = _amount.mul(1e18).div(tokenPrice);\r\n        require(crssToken.balanceOf(address(this)).add(totalWithdrawedAmount).sub(totalRewardAmount) >= rewardTokenAmount, \"Presale.deposit: not enough token to reward\" );\r\n        if(user.depositAmount == 0) {\r\n            investors.push(msg.sender);\r\n        }\r\n        user.depositTime = _getNow();\r\n        user.depositAmount = user.depositAmount + _amount;\r\n        user.totalRewardAmount = user.totalRewardAmount.add(rewardTokenAmount);\r\n        totalRewardAmount = totalRewardAmount.add(rewardTokenAmount);\r\n        totalDepositedBusdBalance = totalDepositedBusdBalance + _amount;\r\n\r\n        busd.safeTransferFrom(msg.sender, masterWallet, _amount);\r\n        \r\n        emit Deposit(msg.sender, _amount);\r\n    }\r\n\r\n    function withdrawToken(uint256 _amount) public {\r\n        uint256 unlocked = unlockedToken(msg.sender);\r\n        require(unlocked >= _amount, \"Presale.withdrawToken: Not enough token to withdraw.\");\r\n\r\n        UserDetail storage user = userDetail[msg.sender];\r\n\r\n        user.withdrawAmount = user.withdrawAmount.add(_amount);\r\n        totalWithdrawedAmount = totalWithdrawedAmount.add(_amount);\r\n\r\n        crssToken.transfer(msg.sender, _amount);\r\n        \r\n        emit Withdraw(msg.sender, _amount);\r\n    }\r\n\r\n    function unlockedToken(address _user) public view returns (uint256) {\r\n        UserDetail storage user = userDetail[_user];\r\n\r\n        if(_getNow() <= user.depositTime) {\r\n            return 0;\r\n        }\r\n        else {\r\n            uint256 timePassed = _getNow().sub(user.depositTime);\r\n            uint256 monthPassed = timePassed.div(oneMonth);\r\n            uint256 unlocked;\r\n            if(monthPassed >= 5){\r\n                unlocked = user.totalRewardAmount;\r\n            } else {\r\n                unlocked = user.totalRewardAmount.mul(unlockPerMonth.mul(monthPassed)).div(100);\r\n            }\r\n            return unlocked.sub(user.withdrawAmount);\r\n        }\r\n    }\r\n    \r\n    function claimCrss() external onlyOwner {\r\n        uint256 balance = crssToken.balanceOf(address(this));\r\n        crssToken.transfer(masterWallet, balance);\r\n        emit ClaimCrss(address(this), masterWallet, balance);\r\n    }\r\n\r\n    function _getNow() internal virtual view returns (uint256) {\r\n        return block.timestamp;\r\n    }\r\n}",
  "sourcePath": "F:/Development/CrossWise - blockchain/crosswise-farm/contracts/PreSale.sol",
  "compiler": {
    "name": "solc",
    "version": "0.6.12+commit.27d51765.Emscripten.clang"
  },
  "schemaVersion": "3.4.1",
  "updatedAt": "2021-08-05T03:13:15.870Z",
  "networkType": "ethereum",
  "devdoc": {
    "kind": "dev",
    "methods": {
      "owner()": {
        "details": "Returns the address of the current owner."
      },
      "renounceOwnership()": {
        "details": "Leaves the contract without owner. It will not be possible to call `onlyOwner` functions anymore. Can only be called by the current owner. NOTE: Renouncing ownership will leave the contract without an owner, thereby removing any functionality that is only available to the owner."
      },
      "transferOwnership(address)": {
        "details": "Transfers ownership of the contract to a new account (`newOwner`). Can only be called by the current owner."
      }
    },
    "version": 1
  },
  "userdoc": {
    "kind": "user",
    "methods": {},
    "version": 1
  }
}